:100000000C9463000C948B000C948B000C940905E9
:100010000C9409050C9409050C948B000C948B002E
:100020000C948B000C948B000C948B000C948B0024
:100030000C948B000C948B000C948B000C948B0014
:100040000C9467040C948B000C94D7040C94B104AA
:100050000C948B000C948B000C948B000C948B00F4
:100060000C948B000C948B000000000024002700EF
:100070002A0000000008000201000003040700003D
:1000800000000000000000000000230026002900FE
:1000900000000000250028002B00040404040404D0
:1000A0000404020202020202030303030303010227
:1000B00004081020408001020408102001020408F6
:1000C00010208305550911241FBECFEFD8E0DEBFF5
:1000D000CDBF22E0A4E4B1E001C01D92A936B20771
:1000E000E1F711E0A0E0B1E0E0EEFBE102C0059035
:1000F0000D92A434B107D9F710E0C2E6D0E004C0F5
:100100002197FE010E94E10BC136D107C9F70E9479
:100110004B060C94E30D0C940000833081F028F41E
:10012000813099F08230A1F008958730A9F08830AD
:10013000B9F08430D1F4809180008F7D03C080912C
:1001400080008F7780938000089584B58F7702C0F8
:1001500084B58F7D84BD08958091B0008F7703C0F2
:100160008091B0008F7D8093B0000895CF93DF938E
:10017000282F30E0F901EE58FF4F8491F901E25544
:10018000FF4FD491F901E656FF4FC491CC2391F073
:1001900081110E948D00EC2FF0E0EE0FFF1FEA5757
:1001A000FF4FA591B491EC91ED2381E090E021F413
:1001B00080E002C080E090E0DF91CF9108951F932E
:1001C000CF93DF93282F30E0F901EE58FF4F849151
:1001D000F901E255FF4FD491F901E656FF4FC49162
:1001E000CC23C1F0162F81110E948D00EC2FF0E07E
:1001F000EE0FFF1FE057FF4FA591B4919FB7F89402
:10020000111104C08C91D095D82302C0EC91DE2B43
:10021000DC939FBFDF91CF911F910895CF93DF9320
:1002200090E0FC01E255FF4F2491FC01E656FF4FA0
:100230008491882361F190E0880F991FFC01E859AF
:10024000FF4FC591D491FC01E057FF4FA591B491A8
:10025000611109C09FB7F894888120958223888313
:10026000EC912E230BC0623061F49FB7F894888123
:10027000322F309583238883EC912E2B2C939FBFB4
:1002800006C08FB7F894E8812E2B28838FBFDF91AB
:10029000CF9108953FB7F894809192019091930186
:1002A000A0919401B091950126B5A89B05C02F3F60
:1002B00019F00196A11DB11D3FBFBA2FA92F982F8C
:1002C0008827820F911DA11DB11DBC01CD0142E007
:1002D000660F771F881F991F4A95D1F708950C94D0
:1002E0004A010895CF92DF92EF92FF920F931F93EE
:1002F000CF93DF936C017A018B01C0E0D0E0CE1583
:10030000DF0581F0D8016D918D01D601ED91FC9151
:100310000190F081E02DC6010995892B11F02196FD
:10032000EECF7E01C701DF91CF911F910F91FF901A
:10033000EF90DF90CF900895FC01538D448D252FD1
:1003400030E0842F90E0821B930B541710F0CF966F
:10035000089501970895FC01918D828D981761F0A1
:10036000828DDF01A80FB11D5D968C91928D9F5FEC
:100370009F73928F90E008958FEF9FEF0895FC0197
:10038000918D828D981731F0828DE80FF11D858D4A
:1003900090E008958FEF9FEF0895FC01918D228DDD
:1003A000892F90E0805C9F4F821B91098F73992762
:1003B000089586E991E00E94CD0121E0892B09F49E
:1003C00020E0822F0895FC01848DDF01A80FB11D6C
:1003D000A35ABF4F2C91848D90E001968F7399277B
:1003E000848FA689B7892C93A089B1898C91837059
:1003F00080648C93938D848D981306C00288F38952
:10040000E02D80818F7D80830895EF92FF920F937E
:100410001F93CF93DF93EC0181E0888F9B8D8C8DB0
:10042000981305C0E889F989808185FD26C0F62EDC
:100430000B8D10E00F5F1F4F0F731127E02E8C8D77
:10044000E8120CC00FB607FCFACFE889F989808161
:1004500085FFF5CFCE010E94E301F1CF8B8DFE0128
:10046000E80FF11DE35AFF4FF0829FB7F8940B8F0E
:10047000EA89FB89808180620AC09FB7F894EE897F
:10048000FF896083E889F989808183708064808333
:100490009FBF81E090E0DF91CF911F910F91FF907E
:1004A000EF900895CF93DF93EC01888D8823C9F0F6
:1004B000EA89FB89808185FD05C0A889B9898C916D
:1004C00086FD0FC00FB607FCF5CF808185FFF2CF08
:1004D000A889B9898C9185FFEDCFCE010E94E301F7
:1004E000E7CFDF91CF91089580E090E0892B29F04C
:1004F0000E94D90181110C94000008950895209163
:100500008601309187012817390771F49091840191
:1005100080918501981741F0E0918401F0E0EC5B57
:10052000FE4F808190E008958FEF9FEF089508952A
:100530001F93CF93DF93DC015C968D919C915D9727
:10054000009739F421E030E013963C932E931297F4
:100550003BC05196ED91FC91529750962C9150973B
:10056000322F30951FB75E964C915E97742F727044
:1005700041FD6095F8944081772311F0422B01C032
:1005800043234083EC012197F1F748E0508160FF5D
:1005900002C0522B01C053235083EC012197F1F785
:1005A0006695415099F78081772319F083238083E2
:1005B00002C0282B20831FBF5C968D919C915D9774
:1005C0000197F1F781E090E0DF91CF911F910895BD
:1005D00020918601309187012817390771F48091A5
:1005E00085012091840190E0805C9F4F821B9109DE
:1005F00060E470E00E94780B089580E090E0089538
:10060000209186013091870128173907B9F490911C
:10061000840180918501981789F0E0918401F0E0D0
:10062000EC5BFE4F80812091840130E02F5F3F4FD3
:100630002F7333272093840190E008958FEF9FEF6D
:10064000089580E090E00895FF920F931F93CF9359
:10065000DF93F82E062FC7E0D0E010E061E0802F96
:100660000E94DF008F2D0E94B6000C2E01C0880F63
:100670000A94EAF7182B60E0802F0E94DF00219790
:1006800068F7812FDF91CF911F910F91FF9008950F
:10069000EF92FF920F931F93CF93DF9380913C02D1
:1006A0000E94B600892B19F00E946F01F7CFEFB6B8
:1006B000F89460913B0280913C020E942403C82F71
:1006C00060913B0280913C020E942403D82F6091EC
:1006D0003B0280913C020E942403F82E00E010E0CF
:1006E00080913D0290E00817190768F461E080915D
:1006F0003B020E94DF0060E080913B020E94DF002D
:100700000F5F1F4FEDCFEFBE8D2F90E0A0E0B0E068
:10071000BA2FA92F982F8827AC2BAC01BD014F29E8
:100720008C2F880F880B90E0A0E0B0E0B82FAA27AC
:10073000992788278A019B01082B192B2A2B3B2BF1
:10074000C901B801DF91CF911F910F91FF90EF90F8
:100750000895009769F0FC0101900020E9F73197B6
:10076000AF01481B590BBC0186E991E00C94720162
:1007700080E090E008958F929F92AF92BF920F9386
:100780001F93CF93DF93CDB7DEB7A1970FB6F89441
:10079000DEBF0FBECDBF19A2423008F44AE08E0181
:1007A0000F5D1F4F842E912CA12CB12CA50194011B
:1007B0000E948C0BE62FB901CA0101501109EA30E1
:1007C00014F4E05D01C0E95CD801EC93232B242BE9
:1007D000252B61F7C8010E94A903A1960FB6F894D2
:1007E000DEBF0FBECDBFDF91CF911F910F91BF90A4
:1007F000AF909F908F900895CF93DF93EC01888105
:100800009981009711F00E947F0C198218821D8235
:100810001C821B821A82DF91CF9108950C947F0C69
:100820000E94CE0D0F931F93CF93DF93EC0188812D
:100830009981009729F02A813B812617370788F490
:100840008B016F5F7F4F0E94080D009761F09983C5
:1008500088831B830A832C813D81232B11F4FC01A7
:10086000108281E001C080E0DF91CF911F910F9154
:100870000895EF92FF920F931F93CF93DF93EC01B4
:100880007B018A01BA010E941204811104C0CE01C9
:100890000E94FC0307C01D830C83B70188819981E6
:1008A0000E94DC0DCE01DF91CF911F910F91FF903F
:1008B000EF900895FC01118210821382128215823A
:1008C000148240E050E062E471E00C9439041F921D
:1008D0000F920FB60F9211242F933F938F939F93F4
:1008E000AF93BF9380918E0190918F01A091900161
:1008F000B091910130918D0123E0230F2D3720F429
:100900000196A11DB11D05C026E8230F0296A11D69
:10091000B11D20938D0180938E0190938F01A09340
:100920009001B09391018091920190919301A091D7
:100930009401B09195010196A11DB11D8093920182
:1009400090939301A0939401B0939501BF91AF91BF
:100950009F918F913F912F910F900FBE0F901F90FD
:1009600018951F920F920FB60F9211242F933F9359
:100970004F935F936F937F938F939F93AF93BF93A7
:10098000EF93FF9386E991E00E94E301FF91EF91DD
:10099000BF91AF919F918F917F916F915F914F9197
:1009A0003F912F910F900FBE0F901F9018951F929F
:1009B0000F920FB60F9211242F938F939F93EF9363
:1009C000FF93E091A601F091A7018081E091AC0135
:1009D000F091AD0182FD12C090818091AF018F5FD7
:1009E0008F732091B001821751F0E091AF01F0E0D8
:1009F000EA56FE4F958F8093AF0101C08081FF9131
:100A0000EF919F918F912F910F900FBE0F901F909C
:100A100018951F920F920FB60F9211242F933F93A8
:100A20004F935F936F937F938F939F93AF93BF93F6
:100A3000EF93FF93E0918601F0918701309709F4DD
:100A400051C0968DA685B785858591FF04C09C9180
:100A5000892329F447C09C91892309F043C0A389C5
:100A6000B4899C918589809589238C9386899789FF
:100A70000197F1F7608D718DA685B785558538E0B2
:100A800020E0CB010197F1F7822F90E095958795B3
:100A9000282F4C91452309F02068315091F7868D1D
:100AA00081FD20958091850190E001968F739927B3
:100AB00030918401381749F0A0918501B0E0AC5B1A
:100AC000BE4F2C938093850103C0868D8160868FF5
:100AD000828D938D0197F1F7A389B4899C918589C3
:100AE000892B8C93FF91EF91BF91AF919F918F9143
:100AF0007F916F915F914F913F912F910F900FBE1A
:100B00000F901F901895109299011092980188EEFD
:100B100093E0A0E0B0E080939A0190939B01A093B2
:100B20009C01B0939D012AE031E03093970120931E
:100B3000960125EC30E03093A3012093A20124EC30
:100B400030E03093A5012093A40120EC30E03093F5
:100B5000A7012093A60121EC30E03093A901209356
:100B6000A80122EC30E03093AB012093AA0126ECDF
:100B700030E03093AD012093AC011092AF011092A0
:100B8000B0011092B1011092B2011092490210927C
:100B9000480280934A0290934B02A0934C02B09378
:100BA0004D0284E291E090934702809346021092B6
:100BB0005D0210925C0210925F0210925E0210922F
:100BC00061021092600210926302109262026091C0
:100BD00064026E7F6260609364026695617081E07A
:100BE00068278BE00E94DF0061E08BE00E940E012D
:100BF000E9EBF0E0E491E0935602E5EAF0E0E491FD
:100C0000F0E0EE0FFF1FE057FF4F85919491909316
:100C100058028093570260E08AE00E940E018091A2
:100C2000640281FD04C061E08AE00E94DF008AE086
:100C300080935202E8EBF0E0E491E0935302E4EA9F
:100C4000F0E0E491F0E0EE0FFF1FEA57FF4F8591CF
:100C5000949190935502809354028CE191E090938B
:100C60003A028093390210923E0210923F02109293
:100C700040021092410280E090E0A0E8BFE3809340
:100C8000420290934302A0934402B093450283E34F
:100C900092E00C945A04CF93DF93CDB7DEB76297FE
:100CA0000FB6F894DEBF0FBECDBF789484B58260D6
:100CB00084BD84B5816084BD85B5826085BD85B500
:100CC000816085BD80916E00816080936E0010927E
:100CD00081008091810082608093810080918100F9
:100CE000816080938100809180008160809380008A
:100CF0008091B10084608093B1008091B0008160E8
:100D00008093B00080917A00846080937A00809113
:100D10007A00826080937A0080917A00816080936B
:100D20007A0080917A00806880937A001092C100E6
:100D3000E091A601F091A70182E08083E091A201F9
:100D4000F091A3011082E091A401F091A50180E14E
:100D500080831092AE01E091AA01F091AB0186E090
:100D60008083E091A801F091A90180818061808356
:100D7000E091A801F091A901808188608083E091D1
:100D8000A801F091A901808180688083E091A80189
:100D9000F091A90180818F7D808310926102109271
:100DA000600210925F0210925E0210925D02109239
:100DB0005C028DE991E090936302809362029091CE
:100DC0005202963108F058C02DEB30E030935D02AE
:100DD00020935C022BE931E030935F0220935E02A6
:100DE0002CE231E030936102209360024091680070
:100DF000983058F031E09E3008F430E021E0822F46
:100E000001C0880F3A95EAF701C084E0842B8093F3
:100E10006800983038F09E3040F0963148F42CE667
:100E200030E008C02DE630E005C02BE630E002C01F
:100E300020E030E030935A0220935902983030F489
:100E400081E001C0880F9A95EAF70EC0292F30E0A3
:100E50009E3018F42850310902C02E50310981E02B
:100E600001C0880F2A95EAF780935B0280916202A5
:100E7000909163020197F1F7809160029091610275
:100E8000892B49F1E0918601F091870182E0E634F7
:100E9000F80709F1309739F0A389B4899C918589C5
:100EA000809589238C93809164028E7F8093640265
:100EB000109285011092840186E492E0909387015C
:100EC00080938601E0915902F0915A0290818091BD
:100ED0005B02892B80838FE080933B028EE08093BE
:100EE0003C0261E08FE00E940E0160E080913C02D4
:100EF0000E940E0181E080933D0260E080913B0200
:100F00000E94DF000E9448032FB7F89480918E0161
:100F100090918F01A0919001B09191012FBF80938A
:100F2000890190938A01A0938B01B0938C01CE012B
:100F30000D960E945A04CE0107960E945A0486E438
:100F400092E00E94E802892B09F186E492E00E9477
:100F500000038235D9F089831A820B851C850F5FC7
:100F60001F4FB801CE0107960E941204882339F35F
:100F70002F8138858B859C85BE016F5F7F4F820FE7
:100F8000931F0E94DC0D1C870B87D9CF8B859C8516
:100F9000892B09F483C0EF81F8858081882309F4C7
:100FA0007DC0CE0101960E945A040B851C85011557
:100FB000110539F10430110510F004E010E0EF8163
:100FC000F885E00FF11FF08010826F817885611540
:100FD000710569F0FB0101900020E9F73197AF013D
:100FE000461B570BCE0101960E94390404C0CE0166
:100FF00001960E94FC038F819885FC01E00FF11F90
:10100000F0828F819885009741F069817A8161151E
:10101000710509F03BC10E947F0C89819A819887F4
:101020008F838B819C819A8789878D819E819C8704
:101030008B871A82198289819A810E947F0C4B8545
:101040005C856F817885E1E080E090E0841795070A
:1010500018F46115710529F410928801A8E8B1E02F
:1010600003C0DB01A80FB91F2C91022E000C330B1B
:10107000205331092A30310508F0E0E00196843030
:10108000910521F7EE2351F083E392E0611571059C
:1010900019F00E94390402C00E94FC0318E0C12C20
:1010A000D12C76010E944803C60ED71EE81EF91EF9
:1010B0000E946F011150B1F7C701B60128E030E07E
:1010C00040E050E00E94AE0BCA01B9010E947E09C7
:1010D0002DEC3CEC4CE45DEB0E94DD0926E632E3AE
:1010E0004EEC55E40E94D20A6B017C014B015C017D
:1010F0006091890170918A0180918B0190918C019E
:101100004AE00E94BB0382E391E00E94A903A70189
:101110009601C701B6010E94730B882319F084E37E
:1011200091E01AC026013701E89477F82FEF3FEFDE
:101130004FE75FE7C301B2010E94730B81110FC03B
:101140002FEF3FEF4FE75FE7C301B2010E9477093E
:1011500018162CF488E391E00E94A90378C02FEFC1
:101160003FEF4FE75FE4C701B6010E946E0B181610
:101170001CF48CE391E0F0CF2FEF3FEF4FE75FECF3
:10118000C701B6010E94770987FDF3CF20E030E068
:10119000A901C701B6010E94770987FF0BC06DE264
:1011A00086E991E00E94050246015701B7FAB09422
:1011B000B7F8B0942AE037ED43EA5BE3C501B40128
:1011C0000E94D30A4B015C010E943F0B6B017C0122
:1011D0000E947C099B01AC01C501B4010E94D20AA6
:1011E0004B015C014AE0C701B6010E94BB036EE2FD
:1011F00086E991E00E94050220E030E040E251E4FF
:10120000C501B4010E94DD094B015C010E943F0B46
:101210006B01E12CF12C4AE0C701B6010E94BB032F
:10122000C701B6010E947C099B01AC01C501B40154
:101230000E94D20A20E030E040E251E40E94DD0941
:101240000E943F0B80E090E04AE00E94BB0382E3F3
:1012500091E00E94A90340913702509138026091B9
:1012600033027091340286E991E00E94720180E4B9
:1012700091E00E94A9038F8198850E947F0C8D8543
:101280009E850E947F0C0E9474023ECE49855A853D
:101290002D813E814217530708F4BDCE0E94DC0D1C
:1012A0008D819E819C878B87C6CE809133029091E1
:1012B00034020E947F0C84E291E090934702809375
:1012C000460280918601909187018654924071F484
:1012D000E0915902F0915A02908180915B028095D1
:1012E00089238083109287011092860108950E94BD
:1012F000B90908F481E00895E89409C097FB3EF429
:1013000090958095709561957F4F8F4F9F4F992352
:10131000A9F0F92F96E9BB279395F69587957795D0
:101320006795B795F111F8CFFAF4BB0F11F460FF90
:101330001BC06F5F7F4F8F4F9F4F16C0882311F0E8
:1013400096E911C0772321F09EE8872F762F05C0FC
:10135000662371F096E8862F70E060E02AF09A9597
:10136000660F771F881FDAF7880F9695879597F98C
:101370000895990F0008550FAA0BE0E8FEEF161626
:101380001706E807F907C0F012161306E407F50779
:1013900098F0621B730B840B950B39F40A2661F0ED
:1013A000232B242B252B21F408950A2609F4A14090
:1013B000A6958FEF811D811D08950E94F0090C9460
:1013C000610A0E94530A38F00E945A0A20F09523BD
:1013D00011F00C944A0A0C94500A11240C94950AAA
:1013E0000E94720A70F3959FC1F3950F50E0551F4C
:1013F000629FF001729FBB27F00DB11D639FAA276A
:10140000F00DB11DAA1F649F6627B00DA11D661FB8
:10141000829F2227B00DA11D621F739FB00DA11DD9
:10142000621F839FA00D611D221F749F3327A00D93
:10143000611D231F849F600D211D822F762F6A2F2F
:1014400011249F5750409AF0F1F088234AF0EE0F94
:10145000FF1FBB1F661F771F881F91505040A9F7C1
:101460009E3F510580F00C944A0A0C94950A5F3F08
:10147000E4F3983ED4F3869577956795B795F795FD
:10148000E7959F5FC1F7FE2B880F911D9695879575
:1014900097F9089597F99F6780E870E060E00895F4
:1014A0009FEF80EC089500240A941616170618067C
:1014B0000906089500240A94121613061406050658
:1014C0000895092E0394000C11F4882352F0BB0FE9
:1014D00040F4BF2B11F460FF04C06F5F7F4F8F4F4C
:1014E0009F4F089557FD9058440F551F59F05F3F87
:1014F00071F04795880F97FB991F61F09F3F79F036
:1015000087950895121613061406551FF2CF4695B7
:10151000F1DF08C0161617061806991FF1CF869539
:101520007105610508940895E894BB27662777271D
:10153000CB0197F908952F923F924F925F926F924D
:101540007F928F929F92AF92BF92CF92DF92EF9253
:10155000FF920F931F93CF93DF93CDB7DEB7CA1BD4
:10156000DB0B0FB6F894DEBF0FBECDBF09942A88FF
:10157000398848885F846E847D848C849B84AA84A7
:10158000B984C884DF80EE80FD800C811B81AA8134
:10159000B981CE0FD11D0FB6F894DEBF0FBECDBFFF
:1015A000ED0108955058BB27AA270E94EA0A0C941F
:1015B000610A0E94530A38F00E945A0A20F039F456
:1015C0009F3F19F426F40C94500A0EF4E095E7FBC3
:1015D0000C944A0AE92F0E94720A58F3BA1762075C
:1015E00073078407950720F079F4A6F50C94940A04
:1015F0000EF4E0950B2EBA2FA02D0B01B90190012E
:101600000C01CA01A0011124FF27591B99F0593F71
:1016100050F4503E68F11A16F040A22F232F342FB9
:101620004427585FF3CF469537952795A795F04007
:101630005395C9F77EF41F16BA0B620B730B840B1C
:10164000BAF09150A1F0FF0FBB1F661F771F881FD4
:10165000C2F70EC0BA0F621F731F841F48F487952C
:1016600077956795B795F7959E3F08F0B0CF93951E
:10167000880F08F09927EE0F9795879508950E9497
:101680007A0A88F09F5798F0B92F9927B751B0F090
:10169000E1F0660F771F881F991F1AF0BA95C9F7F6
:1016A00014C0B13091F00E94940AB1E008950C94F6
:1016B000940A672F782F8827B85F39F0B93FCCF3A9
:1016C000869577956795B395D9F73EF49095809573
:1016D000709561957F4F8F4F9F4F08950E94B90974
:1016E00008F48FEF08950E94B909880B990B0895AB
:1016F00097FB072E16F4009407D077FD09D00E94BF
:10170000CD0B07FC05D03EF4909581959F4F089531
:10171000709561957F4F0895A1E21A2EAA1BBB1BFD
:10172000FD010DC0AA1FBB1FEE1FFF1FA217B307AD
:10173000E407F50720F0A21BB30BE40BF50B661FC3
:10174000771F881F991F1A9469F760957095809587
:1017500090959B01AC01BD01CF010895052E97FB2B
:101760001EF400940E94C50B57FD07D00E948C0BFD
:1017700007FC03D04EF40C94C50B50954095309562
:1017800021953F4F4F4F5F4F0895909580957095ED
:1017900061957F4F8F4F9F4F0895AA1BBB1B51E14F
:1017A00007C0AA1FBB1FA617B70710F0A61BB70BD1
:1017B000881F991F5A95A9F780959095BC01CD0176
:1017C0000895EE0FFF1F0590F491E02D09940F93FB
:1017D0001F93CF93DF938230910510F482E090E065
:1017E000E0916702F091680220E030E0A0E0B0E014
:1017F000309719F1408151810281138148175907AF
:10180000C8F08417950769F4109731F012960C937D
:10181000129713961C9327C00093670210936802D7
:1018200022C02115310519F04217530718F49A0107
:10183000BD01EF01DF01F801DBCF21153105F9F022
:10184000281B390B2430310580F48A819B81611576
:10185000710521F0FB019383828304C09093680299
:1018600080936702FE01329644C0FE01E20FF31F2F
:101870008193919322503109398328833AC0209172
:10188000650230916602232B41F4209102013091D0
:10189000030130936602209365022091000130918C
:1018A00001012115310541F42DB73EB740910401E6
:1018B00050910501241B350BE0916502F091660201
:1018C000E217F307A0F42E1B3F0B2817390778F017
:1018D000AC014E5F5F4F2417350748F04E0F5F1F76
:1018E00050936602409365028193919302C0E0E0B9
:1018F000F0E0CF01DF91CF911F910F910895CF9329
:10190000DF93009709F481C0FC01329713821282A1
:10191000A0916702B0916802109781F42081318113
:10192000820F931F209165023091660228173907B4
:1019300051F5F0936602E093650267C0ED0120E087
:1019400030E0CE17DF0740F44A815B819E014115EC
:101950005105F1F0EA01F5CFD383C2834081518173
:10196000840F951FC817D90759F488819981840F6E
:10197000951F0296918380838A819B8193838283C2
:101980002115310529F4F0936802E09367023DC008
:10199000E901FB83EA8349915991C40FD51FEC17E4
:1019A000FD0761F480819181840F951F0296E90102
:1019B00099838883828193819B838A83E0E0F0E02E
:1019C00012968D919C911397009719F0FD01DC01FF
:1019D000F7CF8D919C9111979D012E5F3F4F820F04
:1019E000931F20916502309166022817390769F428
:1019F000309729F4109268021092670202C0138295
:101A00001282B0936602A0936502DF91CF91089590
:101A1000A0E0B0E0EEE0FDE00C949F0AEC0100973E
:101A200021F4CB010E94E70BB4C0FC01E60FF71FC5
:101A30009C0122503109E217F30708F4A8C0D9012C
:101A40000D911C91119706171707B0F0053011057D
:101A500008F49BC0C80104978617970708F495C03F
:101A600002501109061B170B019311936D937C9380
:101A7000CF010E947F0C89C05B01A01AB10A4C0102
:101A8000800E911EA0916702B0916802612C712CAA
:101A9000E12CF12C109709F446C08D919C9111977F
:101AA000A815B905B1F56C0142E0C40ED11CCA14E9
:101AB000DB0478F14C018A189B08640142E0C40EF3
:101AC000D11C1296BC9012971396AC91B5E0CB1630
:101AD000D10440F0B282A38391828082D9016D93B8
:101AE0007C9309C00E5F1F4F800F911FF9019183F6
:101AF0008083EB2DFA2FE114F10431F0D701139616
:101B0000FC93EE93129741C0F0936802E093670252
:101B10003CC06816790608F43C017D0112960D90D0
:101B2000BC91A02DB7CF8091650290916602881676
:101B30009906E1F466167706C8F480910001909149
:101B40000101009741F48DB79EB740910401509177
:101B50000501841B950BE817F907C8F4F09366029A
:101B6000E0936502F901718360830FC0CB010E948D
:101B7000E70B7C01009759F0A801BE010E94D30D2C
:101B8000CE010E947F0CC70104C0CE0102C080E0DC
:101B900090E0CDB7DEB7EEE00C94BB0A81E090E0B8
:101BA000F8940C94E30DFB01DC0102C001900D924E
:101BB00041505040D8F70895FB01DC0101900D928F
:101BC0000020E1F7089510E0C2E6D0E004C0FE0175
:101BD0000E94E10B2196C336D107C9F7F894FFCFD5
:101BE00000006902800000000000050272019C01F3
:101BF0005202CD01AB01BF01000000007E020E04C5
:101C0000000000009802720121039702E80200031D
:101C10007F022C006E616E00696E66006F76660052
:041C20000D0A0000A9
:00000001FF
